{
  "_format": "hh-sol-artifact-1",
  "contractName": "Feedback",
  "sourceName": "contracts/Feedback.sol",
  "abi": [
    {
      "inputs": [],
      "stateMutability": "nonpayable",
      "type": "constructor"
    },
    {
      "anonymous": false,
      "inputs": [
        {
          "indexed": true,
          "internalType": "address",
          "name": "from",
          "type": "address"
        },
        {
          "indexed": false,
          "internalType": "uint256",
          "name": "timestamp",
          "type": "uint256"
        },
        {
          "indexed": false,
          "internalType": "string",
          "name": "message",
          "type": "string"
        }
      ],
      "name": "NewFeedback",
      "type": "event"
    },
    {
      "inputs": [],
      "name": "getAllFeedback",
      "outputs": [
        {
          "components": [
            {
              "internalType": "address",
              "name": "user",
              "type": "address"
            },
            {
              "internalType": "string",
              "name": "feedback",
              "type": "string"
            },
            {
              "internalType": "uint256",
              "name": "timestamp",
              "type": "uint256"
            }
          ],
          "internalType": "struct Feedback.Feedbacks[]",
          "name": "",
          "type": "tuple[]"
        }
      ],
      "stateMutability": "view",
      "type": "function"
    },
    {
      "inputs": [
        {
          "internalType": "string",
          "name": "message",
          "type": "string"
        }
      ],
      "name": "setFeedback",
      "outputs": [],
      "stateMutability": "nonpayable",
      "type": "function"
    }
  ],
  "bytecode": "0x608060405234801561001057600080fd5b506100596040518060400160405280600581526020017f4c6976652100000000000000000000000000000000000000000000000000000081525061005e60201b6102de1760201c565b6101d8565b6100fa8160405160240161007291906101b6565b6040516020818303038152906040527f41304fac000000000000000000000000000000000000000000000000000000007bffffffffffffffffffffffffffffffffffffffffffffffffffffffff19166020820180517bffffffffffffffffffffffffffffffffffffffffffffffffffffffff83818316178352505050506100fd60201b60201c565b50565b60008151905060006a636f6e736f6c652e6c6f679050602083016000808483855afa5050505050565b600081519050919050565b600082825260208201905092915050565b60005b83811015610160578082015181840152602081019050610145565b60008484015250505050565b6000601f19601f8301169050919050565b600061018882610126565b6101928185610131565b93506101a2818560208601610142565b6101ab8161016c565b840191505092915050565b600060208201905081810360008301526101d0818461017d565b905092915050565b610b0f806101e76000396000f3fe608060405234801561001057600080fd5b50600436106100365760003560e01c8063d3b686641461003b578063d5f5237914610059575b600080fd5b610043610075565b604051610050919061059c565b60405180910390f35b610073600480360381019061006e9190610707565b6101c6565b005b60606000805480602002602001604051908101604052809291908181526020016000905b828210156101bd57838290600052602060002090600302016040518060600160405290816000820160009054906101000a900473ffffffffffffffffffffffffffffffffffffffff1673ffffffffffffffffffffffffffffffffffffffff1673ffffffffffffffffffffffffffffffffffffffff1681526020016001820180546101229061077f565b80601f016020809104026020016040519081016040528092919081815260200182805461014e9061077f565b801561019b5780601f106101705761010080835404028352916020019161019b565b820191906000526020600020905b81548152906001019060200180831161017e57829003601f168201915b5050505050815260200160028201548152505081526020019060010190610099565b50505050905090565b600060405180606001604052803373ffffffffffffffffffffffffffffffffffffffff16815260200183815260200142815250908060018154018082558091505060019003906000526020600020906003020160009091909190915060008201518160000160006101000a81548173ffffffffffffffffffffffffffffffffffffffff021916908373ffffffffffffffffffffffffffffffffffffffff160217905550602082015181600101908161027e919061095c565b506040820151816002015550503373ffffffffffffffffffffffffffffffffffffffff167fdcb86d6802c0813e667057c481096d0284829acfbe1b733269ffc5ac2e4bd39042836040516102d3929190610a87565b60405180910390a250565b610374816040516024016102f29190610ab7565b6040516020818303038152906040527f41304fac000000000000000000000000000000000000000000000000000000007bffffffffffffffffffffffffffffffffffffffffffffffffffffffff19166020820180517bffffffffffffffffffffffffffffffffffffffffffffffffffffffff8381831617835250505050610377565b50565b60008151905060006a636f6e736f6c652e6c6f679050602083016000808483855afa5050505050565b600081519050919050565b600082825260208201905092915050565b6000819050602082019050919050565b600073ffffffffffffffffffffffffffffffffffffffff82169050919050565b60006103f7826103cc565b9050919050565b610407816103ec565b82525050565b600081519050919050565b600082825260208201905092915050565b60005b8381101561044757808201518184015260208101905061042c565b60008484015250505050565b6000601f19601f8301169050919050565b600061046f8261040d565b6104798185610418565b9350610489818560208601610429565b61049281610453565b840191505092915050565b6000819050919050565b6104b08161049d565b82525050565b60006060830160008301516104ce60008601826103fe565b50602083015184820360208601526104e68282610464565b91505060408301516104fb60408601826104a7565b508091505092915050565b600061051283836104b6565b905092915050565b6000602082019050919050565b6000610532826103a0565b61053c81856103ab565b93508360208202850161054e856103bc565b8060005b8581101561058a578484038952815161056b8582610506565b94506105768361051a565b925060208a01995050600181019050610552565b50829750879550505050505092915050565b600060208201905081810360008301526105b68184610527565b905092915050565b6000604051905090565b600080fd5b600080fd5b600080fd5b600080fd5b7f4e487b7100000000000000000000000000000000000000000000000000000000600052604160045260246000fd5b61061482610453565b810181811067ffffffffffffffff82111715610633576106326105dc565b5b80604052505050565b60006106466105be565b9050610652828261060b565b919050565b600067ffffffffffffffff821115610672576106716105dc565b5b61067b82610453565b9050602081019050919050565b82818337600083830152505050565b60006106aa6106a584610657565b61063c565b9050828152602081018484840111156106c6576106c56105d7565b5b6106d1848285610688565b509392505050565b600082601f8301126106ee576106ed6105d2565b5b81356106fe848260208601610697565b91505092915050565b60006020828403121561071d5761071c6105c8565b5b600082013567ffffffffffffffff81111561073b5761073a6105cd565b5b610747848285016106d9565b91505092915050565b7f4e487b7100000000000000000000000000000000000000000000000000000000600052602260045260246000fd5b6000600282049050600182168061079757607f821691505b6020821081036107aa576107a9610750565b5b50919050565b60008190508160005260206000209050919050565b60006020601f8301049050919050565b600082821b905092915050565b6000600883026108127fffffffffffffffffffffffffffffffffffffffffffffffffffffffffffffffff826107d5565b61081c86836107d5565b95508019841693508086168417925050509392505050565b6000819050919050565b600061085961085461084f8461049d565b610834565b61049d565b9050919050565b6000819050919050565b6108738361083e565b61088761087f82610860565b8484546107e2565b825550505050565b600090565b61089c61088f565b6108a781848461086a565b505050565b5b818110156108cb576108c0600082610894565b6001810190506108ad565b5050565b601f821115610910576108e1816107b0565b6108ea846107c5565b810160208510156108f9578190505b61090d610905856107c5565b8301826108ac565b50505b505050565b600082821c905092915050565b600061093360001984600802610915565b1980831691505092915050565b600061094c8383610922565b9150826002028217905092915050565b6109658261040d565b67ffffffffffffffff81111561097e5761097d6105dc565b5b610988825461077f565b6109938282856108cf565b600060209050601f8311600181146109c657600084156109b4578287015190505b6109be8582610940565b865550610a26565b601f1984166109d4866107b0565b60005b828110156109fc578489015182556001820191506020850194506020810190506109d7565b86831015610a195784890151610a15601f891682610922565b8355505b6001600288020188555050505b505050505050565b610a378161049d565b82525050565b600082825260208201905092915050565b6000610a598261040d565b610a638185610a3d565b9350610a73818560208601610429565b610a7c81610453565b840191505092915050565b6000604082019050610a9c6000830185610a2e565b8181036020830152610aae8184610a4e565b90509392505050565b60006020820190508181036000830152610ad18184610a4e565b90509291505056fea26469706673582212204b41111728f8ac8c3f65da22265863c1c54a834fd9a1e804c6bf5423a659bb6e64736f6c63430008110033",
  "linkReferences": {},
  "deployedLinkReferences": {}
}